:16000A000000000000000000008001C38241007F001F71800FFF3C
:200020007F80FF0F8F8F180219021A021B021C02200103020402050206020B015F026002FF
:1C0040006102620263026402650266025B025C025D025E020302040204010501B3
:20020000000000000000000000290060490060090060690060E90060C38241007F8080002C
:2002200002000286048200010387058301400061412000C080E1C1A080030081018002018E
:2002400000810180000003010001028081818081807F80FF00010080800200001F71800F72
:1B026000FF7F80FF0F8F8F00F11F00F0FFFFFFFFF0F00F00FF7F80028000806E
:20040000D8A2FF9AA9008D000220A641A2054C3604A005D00820B54188888888888888888A
:200420008888F01720B541CACACACACACACACACACAF0DE20B541D0F420B541AD0002C90075
:20044000F00320B541A9018D0002A0FE8898AA1008186902EAEAEAEAEAEAEAEAEAEA497F6B
:200460008DEC04A9004CEB04CACACACACACACACACACACACACACACACACACACACACACACACA2B
:20048000CACACACACACACACACACACACACACACACACACACACACACACACACACACACACACACACA1C
:2004A000CACACACACACACACACACACACACACACACACACACACACACACACACACACACACACACACAFC
:2004C000CACACACACACACACACACACACACACACACACACACACACACACACACACACACACACACACADC
:2004E000CACACACACACACACACACACAF03ECACACACACACACACACACACACACACACACACACACA22
:20050000CACACACACACACACACACACACACACACACACACACACACACACACACACACACACACACACA9B
:20052000CACACACACACACACACACACACACACACACACACACACACACACACACACACACACACACACA7B
:20054000CACACACACACACACACACACACACACACACACACACACACACACACACACACACACACACACA5B
:20056000CACACACACACACACACACACACAEAEAEAEAEAF00820B541EAEAEAEAEAEAEAEAEAEA3F
:20058000C000F0034C4C04AD0002C901F00320B541A9028D0002C001D00320B541A900C934
:2005A00000F00320B541B00320B541100320B541C901D00320B541900320B541300320B5DC
:2005C00041AAE000F00320B541B00320B541100320B541E001D00320B541900320B54130B2
:2005E0000320B541A8C000F00320B541B00320B541100320B541C001D00320B54190032022
:20060000B541300320B541AD0002C902F00320B541A9038D0002A2FF9AA95548A9AA48CDF4
:20062000FE01F00320B541BA8AC9FDF00320B54168C9AAF00320B54168C955F00320B5412C
:20064000CDFF01F00320B541BAE0FFF00320B541AD0002C903F00320B541A9048D0002A9B9
:20066000FF4828101A501B901CD01D300320B541700320B541B00320B541F00F20B541200D
:20068000B54120B54120B54120B54108BAE0FEF00320B54168C9FFF00320B541BAE0FFF0B7
:2006A0000320B541A9004828301A701BB01CF01D100320B541500320B541900320B541D04F
:2006C0000F20B54120B54120B54120B54120B5410868C930F00320B541A9024828D002F04E
:2006E0000320B541B002900320B5413002100320B5417002500320B541A9014828F002D074
:200700000320B5419002B00320B5413002100320B5417002500320B541A9804828F002D0D4
:200720000320B541B002900320B5411002300320B5417002500320B541A9404828F002D0F4
:200740000320B541B002900320B5413002100320B5415002700320B541A9FD4828F002D017
:200760000320B5419002B00320B5411002300320B5415002700320B541A9FE4828D002F0F6
:200780000320B541B002900320B5411002300320B5415002700320B541A97F4828D002F055
:2007A0000320B5419002B00320B5413002100320B5415002700320B541A9BF4828D002F0F5
:2007C0000320B5419002B00320B5411002300320B5417002500320B541AD0002C904F00300
:2007E00020B541A9058D0002A255A0AAA9FF48A901284808C901F00320B5416848C9FFF018
:200800000320B54128A90048A900284808C900F00320B5416848C930F00320B54128A9FF31
:2008200048A9FF284808C9FFF00320B5416848C9FFF00320B54128A90048A901284808C9FA
:2008400001F00320B5416848C930F00320B54128A9FF48A900284808C900F00320B5416869
:2008600048C9FFF00320B54128A90048A9FF284808C9FFF00320B5416848C930F00320B5E4
:200880004128A9FF48A900286808C9FFF00320B5416848C9FDF00320B54128A90048A9FFAD
:2008A000286808C900F00320B5416848C932F00320B54128A9FF48A9FE286808C901F00306
:2008C00020B5416848C97DF00320B54128A90048A900286808C9FFF00320B5416848C9B0AF
:2008E000F00320B54128A9FF48A9FF286808C900F00320B5416848C97FF00320B54128A9F3
:200900000048A9FE286808C901F00320B5416848C930F00320B54128E055F00320B541C0A5
:20092000AAF00320B541AD0002C905F00320B541A9068D0002A90048A93C2849C308C9FF66
:20094000F00320B5416848C9B0F00320B54128A90048A9C32849C308C900F00320B5416861
:2009600048C932F00320B54128AD0002C906F00320B541A9078D0002A224A042A90048A9FB
:200980001828EA08C918F00320B5416848C930F00320B54128E024F00320B541C042F0035F
:2009A00020B541A2DBA0BDA9FF48A9E728EA08C9E7F00320B5416848C9FFF00320B541284B
:2009C000E0DBF00320B541C0BDF00320B541AD0002C907F00320B541A9088D0002A9004814
:2009E00028A946A241A0524CE53FEAEAF00320B541E8E8D00320B541300320B541B00320E9
:200A0000B541700320B541C9ECF00320B541E042F00320B541C04FF00320B541CAC8C8C834
:200A200049AA4C2E0AEAEAF00320B541E8E8D00320B541100320B541B00320B54170032024
:200A4000B541C946F00320B541E041F00320B541C052F00320B541AD0002C908F00320B5FB
:200A600041A9098D0002A9004828A949A24EA0446C2C40EAF00320B5418888088888882872
:200A8000D00320B541300320B541B00320B541700320B541C9E3F00320B541E04FF00320DB
:200AA000B541C03EF00320B541BAE0FFF00320B541AD0002C909F00320B541A90A8D0002CB
:200AC000A9004828A94AA253A0522083400888888828D00320B541300320B541B00320B5BE
:200AE00041700320B541C9E0F00320B541E054F00320B541C04CF00320B541BAE0FFF0039C
:200B000020B541AD0002C90AF00320B541A90B8D0002A90048A942A252A04B2800880888F6
:200B20008888C9E8F00320B541E053F00320B541C045F00320B54168C930F00320B541BA7D
:200B4000E0FFF00320B541A9FF48A9BDA2ADA0B428008808888888C917F00320B541E0AEED
:200B6000F00320B541C0AEF00320B54168C9FFF00320B541BAE0FFF00320B541AD0002C9A2
:200B80000BF00320B541A90C8D0002A9FF482818086848C9FEF00320B5412838086848C964
:200BA000FFF00320B5412858086848C9FBF00320B5412878086848C9FFF00320B54128D8FF
:200BC000086848C9F7F00320B54128F8086848C9FFF00320B54128B8086848C9BFF00320B8
:200BE000B54128A9004828086848C930F00320B5412838086848C931F00320B541281808A1
:200C00006848C930F00320B5412878086848C934F00320B5412858086848C930F00320B5CB
:200C20004128F8086848C938F00320B54128D8086848C930F00320B54128A94048280868E6
:200C400048C970F00320B54128B8086848C930F00320B54128AD0002C90CF00320B541A912
:200C60000D8D0002A2FEA9FF4828E808E0FFF00320B5416848C9FDF00320B54128E808E0D1
:200C800000F00320B5416848C97FF00320B54128E808E001F00320B5416848C97DF003203F
:200CA000B54128CA08E000F00320B5416848C97FF00320B54128CA08E0FFF00320B5416810
:200CC00048C9FDF00320B54128CAA9004828E808E0FFF00320B5416848C9B0F00320B541E8
:200CE00028E808E000F00320B5416848C932F00320B54128E808E001F00320B5416848C9C4
:200D000030F00320B54128CA08E000F00320B5416848C932F00320B54128CA08E0FFF00337
:200D200020B5416848C9B0F00320B54128A0FEA9FF4828C808C0FFF00320B5416848C9FD7F
:200D4000F00320B54128C808C000F00320B5416848C97FF00320B54128C808C001F00320FC
:200D6000B5416848C97DF00320B541288808C000F00320B5416848C97FF00320B54128884C
:200D800008C0FFF00320B5416848C9FDF00320B5412888A9004828C808C0FFF00320B541A3
:200DA0006848C9B0F00320B54128C808C000F00320B5416848C932F00320B54128C808C0D4
:200DC00001F00320B5416848C930F00320B541288808C000F00320B5416848C932F0032018
:200DE000B541288808C0FFF00320B5416848C9B0F00320B54128A2FFA9FF48288A08C9FF10
:200E0000F00320B5416848C9FDF00320B5412808E8288A08C900F00320B5416848C97FF0BE
:200E20000320B5412808E8288A08C901F00320B5416848C97DF00320B54128A90048288A2A
:200E400008C901F00320B5416848C930F00320B5412808CA288A08C900F00320B5416848CF
:200E6000C932F00320B5412808CA288A08C9FFF00320B5416848C9B0F00320B54128A0FFF0
:200E8000A9FF48289808C9FFF00320B5416848C9FDF00320B5412808C8289808C900F003CE
:200EA00020B5416848C97FF00320B5412808C8289808C901F00320B5416848C97DF003207F
:200EC000B54128A90048289808C901F00320B5416848C930F00320B541280888289808C96D
:200EE00000F00320B5416848C932F00320B541280888289808C9FFF00320B5416848C9B0BB
:200F0000F00320B54128A9FF48A2FF8A28A808C0FFF00320B5416848C9FDF00320B541283E
:200F200008E88A28A808C000F00320B5416848C97FF00320B5412808E88A28A808C001F06A
:200F40000320B5416848C97DF00320B54128A90048A9008A28A808C001F00320B5416848DB
:200F6000C930F00320B5412808CA8A28A808C000F00320B5416848C932F00320B541280866
:200F8000CA8A28A808C0FFF00320B5416848C9B0F00320B54128A9FF48A0FF9828AA08E022
:200FA000FFF00320B5416848C9FDF00320B5412808C89828AA08E000F00320B5416848C9DE
:200FC0007FF00320B5412808C89828AA08E001F00320B5416848C97DF00320B54128A90065
:200FE00048A9009828AA08E001F00320B5416848C930F00320B5412808889828AA08E000E8
:20100000F00320B5416848C932F00320B5412808889828AA08E0FFF00320B5416848C9B0D8
:20102000F00320B54128AD0002C90DF00320B541A90E8D0002A201A9FF48289A08AD01019F
:20104000C9FFF00320B541A90048289A08AD0101C930F00320B541CAA9FF48289A08AD0022
:2010600001C9FFF00320B541A90048289A08AD0001C930F00320B541CAA9FF48289A08AD02
:20108000FF01C9FFF00320B541A90048289A08ADFF01C930A2019AA9FF4828BA08E001F036
:2010A0000320B541AD0101C97DF00320B541A9FF4828BA08E000F00320B541AD0001C97F60
:2010C000F00320B541A9FF4828BA08E0FFF00320B541ADFF01C9FDF00320B541A2019AA9E3
:2010E000004828BA08E001F00320B541AD0101C930F00320B541A9004828BA08E000F00375
:2011000020B541AD0001C932F00320B541A9004828BA08E0FFF00320B541ADFF01C9B0F02E
:201120000320B54168AD0002C90EF00320B541A90F8D0002A003A9004828B615088A49C333
:20114000289903020849C3D91802F00320B541684930D91D02F00320B5418810D9A003A91A
:20116000FF4828B615088A49C3289903020849C3D91802F00320B54168497DD91D02F003A8
:2011800020B5418810D9A003A9004828BE1802088A49C3AA28960C0849C3D91500F003200D
:2011A000B541684930D91D02F00320B5418810D8A003A9FF4828BE1802088A49C3AA28964E
:2011C0000C0849C3D91500F00320B54168497DD91D02F00320B5418810D8A003A200B90C4F
:2011E0000049C3D91500F00320B541960CB9030249C3D91802F00320B5418A9903028810C4
:20120000DDAD0002C90FF00320B541A9108D0002A0FDB61B8A99090188C0FAB0F5A0FDBE3C
:201220001E01961288C0FAB0F6A003A200B90C00D91500F00320B541960CB90302D91802AB
:20124000F00320B5418A9903028810E1AD0002C910F00320B541A9118D0002A203A9004874
:2012600028B415089849C3289D03020849C3DD1802F00320B541684930DD1D02F00320B54E
:2012800041CA10D9A203A9FF4828B415089849C3289D03020849C3DD1802F00320B54168E2
:2012A000497DDD1D02F00320B541CA10D9A203A9004828BC1802089849C3A828940C0849AF
:2012C000C3D515F00320B541684930DD1D02F00320B541CA10D9A203A9FF4828BC18020824
:2012E0009849C3A828940C0849C3D515F00320B54168497DDD1D02F00320B541CA10D9A24B
:2013000003A000B50C49C3D515F00320B541940CBD030249C3DD1802F00320B5418A9D03D2
:2013200002CA10DFAD0002C911F00320B541A9128D0002A2FDB41B989D0901CAE0FAB0F520
:20134000A2FDBC1E019412CAE0FAB0F6A203A000B50CD515F00320B541940CBD0302DD18D3
:2013600002F00320B5418A9D0302CA10E3AD0002C912F00320B541A9138D0002A900482882
:20138000A615088A49C3AA288E03020849C3AAE0C3F00320B541684930CD1D02F00320B590
:2013A00041A9004828A616088A49C3AA288E04020849C3AAE082F00320B541684930CD1E1E
:2013C00002F00320B541A9004828A617088A49C3AA288E05020849C3AAE041F00320B5413F
:2013E000684930CD1F02F00320B541A9004828A618088A49C3AA288E06020849C3AAE0009A
:20140000F00320B541684930CD2002F00320B541A9FF4828A615088A49C3AA288E0302080C
:2014200049C3AAE0C3F00320B54168497DCD1D02F00320B541A9FF4828A616088A49C3AA0B
:20144000288E04020849C3AAE082F00320B54168497DCD1E02F00320B541A9FF4828A617AE
:20146000088A49C3AA288E05020849C3AAE041F00320B54168497DCD1F02F00320B541A9B1
:20148000FF4828A618088A49C3AA288E06020849C3AAE000F00320B54168497DCD2002F065
:2014A0000320B541A9004828AE1802088A49C3AA28860C0849C3C515F00320B54168493058
:2014C000CD1D02F00320B541A9004828AE1902088A49C3AA28860D0849C3C516F00320B57B
:2014E00041684930CD1E02F00320B541A9004828AE1A02088A49C3AA28860E0849C3C517FD
:20150000F00320B541684930CD1F02F00320B541A9004828AE1B02088A49C3AA28860F08F9
:2015200049C3C518F00320B541684930CD2002F00320B541A9FF4828AE1802088A49C3AAB8
:2015400028860C0849C3AAE415F00320B54168497DCD1D02F00320B541A9FF4828AE19020D
:20156000088A49C3AA28860D0849C3AAE416F00320B54168497DCD1E02F00320B541A9FFDB
:201580004828AE1A02088A49C3AA28860E0849C3AAE417F00320B54168497DCD1F02F0033C
:2015A00020B541A9FF4828AE1B02088A49C3AA28860F0849C3AAE418F00320B54168497D3C
:2015C000CD2002F00320B541A9004828A2C308EC1802F00320B541684930CD1D02F003209E
:2015E000B541A9004828A28208EC1902F00320B541684930CD1E02F00320B541A9004828B0
:20160000A24108EC1A02F00320B541684930CD1F02F00320B541A9004828A20008EC1B022A
:20162000F00320B541684930CD2002F00320B541A9FF4828A2C308EC1802F00320B54168CC
:20164000497DCD1D02F00320B541A9FF4828A28208EC1902F00320B54168497DCD1E02F070
:201660000320B541A9FF4828A24108EC1A02F00320B54168497DCD1F02F00320B541A9FF70
:201680004828A20008EC1B02F00320B54168497DCD2002F00320B541A200A50C49C3C515BF
:2016A000F00320B541860CAD030249C3CD1802F00320B5418E0302A50D49C3C516F00320A2
:2016C000B541860DAD040249C3CD1902F00320B5418E0402A50E49C3C517F00320B5418613
:2016E0000EAD050249C3CD1A02F00320B5418E0502A50F49C3C518F00320B541860FAD06A7
:201700000249C3CD1B02F00320B5418E0602AD0002C913F00320B541A9148D0002A9004861
:2017200028A415089849C3A8288C03020849C3A8C0C3F00320B541684930CD1D02F0032093
:20174000B541A9004828A416089849C3A8288C04020849C3A8C082F00320B541684930CDFD
:201760001E02F00320B541A9004828A417089849C3A8288C05020849C3A8C041F00320B5D8
:2017800041684930CD1F02F00320B541A9004828A418089849C3A8288C06020849C3A8C0CF
:2017A00000F00320B541684930CD2002F00320B541A9FF4828A415089849C3A8288C030269
:2017C0000849C3A8C0C3F00320B54168497DCD1D02F00320B541A9FF4828A416089849C320
:2017E000A8288C04020849C3A8C082F00320B54168497DCD1E02F00320B541A9FF4828A4A0
:2018000017089849C3A8288C05020849C3A8C041F00320B54168497DCD1F02F00320B541B7
:20182000A9FF4828A418089849C3A8288C06020849C3A8C000F00320B54168497DCD200222
:20184000F00320B541A9004828AC1802089849C3A828840C0849C3A8C415F00320B541688E
:201860004930CD1D02F00320B541A9004828AC1902089849C3A828840D0849C3A8C416F087
:201880000320B541684930CD1E02F00320B541A9004828AC1A02089849C3A828840E084918
:2018A000C3A8C417F00320B541684930CD1F02F00320B541A9004828AC1B02089849C3A8CB
:2018C00028840F0849C3A8C418F00320B541684930CD2002F00320B541A9FF4828AC1802F5
:2018E000089849C3A828840C0849C3A8C515F00320B54168497DCD1D02F00320B541A9FF72
:201900004828AC1902089849C3A828840D0849C3A8C516F00320B54168497DCD1E02F003D5
:2019200020B541A9FF4828AC1A02089849C3A828840E0849C3A8C517F00320B54168497DD4
:20194000CD1F02F00320B541A9FF4828AC1B02089849C3A828840F0849C3A8C518F00320F4
:20196000B54168497DCD2002F00320B541A9004828A0C308CC1802F00320B541684930CD2A
:201980001D02F00320B541A9004828A08208CC1902F00320B541684930CD1E02F00320B556
:2019A00041A9004828A04108CC1A02F00320B541684930CD1F02F00320B541A9004828A062
:2019C0000008CC1B02F00320B541684930CD2002F00320B541A9FF4828A0C308CC1802F0DB
:2019E0000320B54168497DCD1D02F00320B541A9FF4828A08208CC1902F00320B5416849C8
:201A00007DCD1E02F00320B541A9FF4828A04108CC1A02F00320B54168497DCD1F02F00352
:201A200020B541A9FF4828A00008CC1B02F00320B54168497DCD2002F00320B541A000A573
:201A40000C49C3C515F00320B541840CAD030249C3CD1802F00320B5418C0302A50D49C3FE
:201A6000C516F00320B541840DAD040249C3CD1902F00320B5418C0402A50E49C3C517F024
:201A80000320B541840EAD050249C3CD1A02F00320B5418C0502A50F49C3C518F00320B5F1
:201AA00041840FAD060249C3CD1B02F00320B5418C0602AD0002C914F00320B541A9158D2A
:201AC0000002A203A9004828B5150849C3289D03020849C3DD1802F00320B541684930DDCC
:201AE0001D02F00320B541CA10DAA203A9FF4828B5150849C3289D03020849C3DD1802F0AA
:201B00000320B54168497DDD1D02F00320B541CA10DAA203A9004828BD18020849C328955F
:201B20000C0849C3D515F00320B541684930DD1D02F00320B541CA10DBA203A9FF4828BD7D
:201B400018020849C328950C0849C3D515F00320B54168497DDD1D02F00320B541CA10DB9F
:201B6000A203A000B50C49C3D515F00320B541940CBD030249C3DD1802F00320B5418A9DCB
:201B80000302CA10DFAD0002C915F00320B541A9168D0002A003A9004828B1260849C328D4
:201BA0009903020849C3D91802F00320B541684930D91D02F00320B5418810DAA003A9FFD8
:201BC0004828B1260849C3289903020849C3D91802F00320B54168497DD91D02F00320B5E6
:201BE000418810DAA003A200B9030249C3D91802F00320B5418A9903028810ECA003A9002F
:201C00004828B918020849C32891320849C3D126F00320B541684930D91D02F00320B5418C
:201C20008810DBA003A9FF4828B918020849C32891320849C3D126F00320B54168497DD989
:201C40001D02F00320B5418810DBA003A200B9030249C3D91802F00320B5418A990302882E
:201C600010ECA206A003A9004828A1260849C32881320849C3D91802F00320B5416849305D
:201C8000D91D02F00320B541CACA8810D9A206A003A9FF4828A1260849C32881320849C311
:201CA000D91802F00320B54168497DD91D02F00320B541CACA8810D9A003A200B9030249A8
:201CC000C3D91802F00320B5418A9903028810ECAD0002C916F00320B541A9178D0002A211
:201CE000FDB51B9D0901CAE0FAB0F6A2FDBD1E019512CAE0FAB0F6A203A000B50CD515F0DA
:201D00000320B541940CBD0302DD1802F00320B5418A9D0302CA10E3A0FBA2FEA12E990BB1
:201D200001CACA88C0F8B0F4A003A200B90302D91802F00320B5418A9903028810EEA0FBE2
:201D4000B92001913A88C0F8B0F6A003A200B90302D91802F00320B5418A9903028810EE4B
:201D6000A0FBA2FEB130813ACACA88C0F8B0F5A003A200B90302D91802F00320B5418A99F1
:201D800003028810EEAD0002C917F00320B541A9188D0002A9004828A5150849C3288D0331
:201DA000020849C3C9C3F00320B541684930CD1D02F00320B541A9004828A5160849C32892
:201DC0008D04020849C3C982F00320B541684930CD1E02F00320B541A9004828A51708490B
:201DE000C3288D05020849C3C941F00320B541684930CD1F02F00320B541A9004828A5188F
:201E00000849C3288D06020849C3C900F00320B541684930CD2002F00320B541A9FF48281A
:201E2000A5150849C3288D03020849C3C9C3F00320B54168497DCD1D02F00320B541A9FFA6
:201E40004828A5160849C3288D04020849C3C982F00320B54168497DCD1E02F00320B541FC
:201E6000A9FF4828A5170849C3288D05020849C3C941F00320B54168497DCD1F02F0032068
:201E8000B541A9FF4828A5180849C3288D06020849C3C900F00320B54168497DCD2002F0B3
:201EA0000320B541A9004828AD18020849C328850C0849C3C515F00320B541684930CD1D9A
:201EC00002F00320B541A9004828AD19020849C328850D0849C3C516F00320B5416849306F
:201EE000CD1E02F00320B541A9004828AD1A020849C328850E0849C3C517F00320B54168DA
:201F00004930CD1F02F00320B541A9004828AD1B020849C328850F0849C3C518F00320B5E5
:201F200041684930CD2002F00320B541A9FF4828AD18020849C328850C0849C3C515F003FA
:201F400020B54168497DCD1D02F00320B541A9FF4828AD19020849C328850D0849C3C516AB
:201F6000F00320B54168497DCD1E02F00320B541A9FF4828AD1A020849C328850E0849C370
:201F8000C517F00320B54168497DCD1F02F00320B541A9FF4828AD1B020849C328850F087D
:201FA00049C3C518F00320B54168497DCD2002F00320B541A9004828A9C308CD1802F003A2
:201FC00020B541684930CD1D02F00320B541A9004828A98208CD1902F00320B541684930F7
:201FE000CD1E02F00320B541A9004828A94108CD1A02F00320B541684930CD1F02F003200C
:20200000B541A9004828A90008CD1B02F00320B541684930CD2002F00320B541A9FF48281C
:20202000A9C308CD1802F00320B54168497DCD1D02F00320B541A9FF4828A98208CD1902E6
:20204000F00320B54168497DCD1E02F00320B541A9FF4828A94108CD1A02F00320B54168EF
:20206000497DCD1F02F00320B541A9FF4828A90008CD1B02F00320B54168497DCD2002F0DA
:202080000320B541A200A50C49C3C515F00320B541860CAD030249C3CD1802F00320B541A5
:2020A0008E0302A50D49C3C516F00320B541860DAD040249C3CD1902F00320B5418E040214
:2020C000A50E49C3C517F00320B541860EAD050249C3CD1A02F00320B5418E0502A50F4984
:2020E000C3C518F00320B541860FAD060249C3CD1B02F00320B5418E0602AD0002C918F0D8
:202100000320B541A9198D0002A90048A9FF28241808C9FFF00320B5416848C932F00320C1
:20212000B54128A90048A90128241708C901F00320B5416848C970F00320B54128A900489D
:20214000A90128241608C901F00320B5416848C9B2F00320B54128A90048A9012824150838
:20216000C901F00320B5416848C9F0F00320B54128A9FF48A9FF28241808C9FFF00320B55E
:20218000416848C93FF00320B54128A9FF48A90128241708C901F00320B5416848C97DF057
:2021A0000320B54128A9FF48A90128241608C901F00320B5416848C9BFF00320B54128A9F5
:2021C000FF48A90128241508C901F00320B5416848C9FDF00320B54128A90048A9FF282C3E
:2021E0001B0208C9FFF00320B5416848C932F00320B54128A90048A901282C1A0208C90130
:20220000F00320B5416848C970F00320B54128A90048A901282C190208C901F00320B541B6
:202220006848C9B2F00320B54128A90048A901282C180208C901F00320B5416848C9F0F005
:202240000320B54128A9FF48A9FF282C1B0208C9FFF00320B5416848C93FF00320B5412872
:20226000A9FF48A901282C1A0208C901F00320B5416848C97DF00320B54128A9FF48A901B8
:20228000282C190208C901F00320B5416848C9BFF00320B54128A9FF48A901282C1802087B
:2022A000C901F00320B5416848C9FDF00320B54128AD0002C919F00320B541A91A8D0002B8
:2022C000A90048A28028E419086848C931F00320B54128CAE419086848C933F00320B5415F
:2022E00028CAE41908E07EF00320B5416848C9B0F00320B54128A9FF48A28028E41908687F
:2023000048C97DF00320B54128CAE419086848C97FF00320B54128CAE41908E07EF00320C6
:20232000B5416848C9FCF00320B54128A90048A28028EC1C02086848C931F00320B54128D9
:20234000CAEC1C02086848C933F00320B54128CAEC1C0208E07EF00320B5416848C9B0F068
:202360000320B54128A9FF48A28028EC1C02086848C97DF00320B54128CAEC1C020868481D
:20238000C97FF00320B54128CAEC1C0208E07EF00320B5416848C9FCF00320B54128A90032
:2023A00048A28028E07F086848C931F00320B54128CAE07F086848C933F00320B54128CA71
:2023C000E07F08E07EF00320B5416848C9B0F00320B54128A9FF48A28028E07F086848C9BB
:2023E0007DF00320B54128CAE07F086848C97FF00320B54128CAE07F08E07EF00320B5413D
:202400006848C9FCF00320B54128AD0002C91AF00320B541A91B8D0002A90048A08028C42B
:2024200019086848C931F00320B5412888C419086848C933F00320B5412888C41908C07EAB
:20244000F00320B5416848C9B0F00320B54128A9FF48A08028C419086848C97DF00320B53E
:20246000412888C419086848C97FF00320B5412888C41908C07EF00320B5416848C9FCF044
:202480000320B54128A90048A08028CC1C02086848C931F00320B5412888CC1C02086848CB
:2024A000C933F00320B5412888CC1C0208C07EF00320B5416848C9B0F00320B54128A9FF2C
:2024C00048A08028CC1C02086848C97DF00320B5412888CC1C02086848C97FF00320B541D8
:2024E0002888CC1C0208C07EF00320B5416848C9FCF00320B54128A90048A08028C07F08CD
:202500006848C931F00320B5412888C07F086848C933F00320B5412888C07F08C07EF00334
:2025200020B5416848C9B0F00320B54128A9FF48A08028C07F086848C97DF00320B5412885
:2025400088C07F086848C97FF00320B5412888C07F08C07EF00320B5416848C9FCF00320E5
:20256000B54128AD0002C91BF00320B541A91C8D0002A90048A98028C51908C980F00320C9
:20258000B5416848C931F00320B54128A90048A97F28C51908C97FF00320B5416848C93346
:2025A000F00320B54128A90048A97E28C51908C97EF00320B5416848C9B0F00320B541281A
:2025C000A9FF48A98028C51908C980F00320B5416848C97DF00320B54128A9FF48A97F281B
:2025E000C51908C97FF00320B5416848C97FF00320B54128A9FF48A97E28C51908C97EF01F
:202600000320B5416848C9FCF00320B54128A90048A98028CD1C0208C980F00320B541680C
:2026200048C931F00320B54128A90048A97F28CD1C0208C97FF00320B5416848C933F00303
:2026400020B54128A90048A97E28CD1C0208C97EF00320B5416848C9B0F00320B54128A9B6
:20266000FF48A98028CD1C0208C980F00320B5416848C97DF00320B54128A9FF48A97F2816
:20268000CD1C0208C97FF00320B5416848C97FF00320B54128A9FF48A97E28CD1C0208C9D2
:2026A0007EF00320B5416848C9FCF00320B54128A90048A98028C97F08C980F00320B54109
:2026C0006848C931F00320B54128A90048A97F28C97F08C97FF00320B5416848C933F0039E
:2026E00020B54128A90048A97E28C97F08C97EF00320B5416848C9B0F00320B54128A9FFBA
:2027000048A98028C97F08C980F00320B5416848C97DF00320B54128A9FF48A97F28C97FCF
:2027200008C97FF00320B5416848C97FF00320B54128A9FF48A97E28C97F08C97EF003202E
:20274000B5416848C9FCF00320B54128A204A90048A98028D51508C980F00320B541684801
:20276000C931F00320B54128A90048A97F28D51508C97FF00320B5416848C933F00320B536
:202780004128A90048A97E28D51508C97EF00320B5416848C9B0F00320B54128A9FF48A95B
:2027A0008028D51508C980F00320B5416848C97DF00320B54128A9FF48A97F28D51508C90B
:2027C0007FF00320B5416848C97FF00320B54128A9FF48A97E28D51508C97EF00320B541C7
:2027E0006848C9FCF00320B54128A90048A98028DD180208C980F00320B5416848C931F006
:202800000320B54128A90048A97F28DD180208C97FF00320B5416848C933F00320B5412809
:20282000A90048A97E28DD180208C97EF00320B5416848C9B0F00320B54128A9FF48A98096
:2028400028DD180208C980F00320B5416848C97DF00320B54128A9FF48A97F28DD18020899
:20286000C97FF00320B5416848C97FF00320B54128A9FF48A97E28DD180208C97EF0032046
:20288000B5416848C9FCF00320B54128A004A208A90048A98028D9180208C980F00320B500
:2028A000416848C931F00320B54128A90048A97F28D9180208C97FF00320B5416848C933C3
:2028C000F00320B54128A90048A97E28D9180208C97EF00320B5416848C9B0F00320B5410A
:2028E00028A9FF48A98028D9180208C980F00320B5416848C97DF00320B54128A9FF48A962
:202900007F28D9180208C97FF00320B5416848C97FF00320B54128A9FF48A97E28D9180269
:2029200008C97EF00320B5416848C9FCF00320B54128A90048A98028C12608C980F003200C
:20294000B5416848C931F00320B54128A90048A97F28C12608C97FF00320B5416848C93379
:20296000F00320B54128A90048A97E28C12608C97EF00320B5416848C9B0F00320B541284D
:20298000A9FF48A98028C12608C980F00320B5416848C97DF00320B54128A9FF48A97F284E
:2029A000C12608C97FF00320B5416848C97FF00320B54128A9FF48A97E28C12608C97EF049
:2029C0000320B5416848C9FCF00320B54128A90048A98028D12608C980F00320B5416848F5
:2029E000C931F00320B54128A90048A97F28D12608C97FF00320B5416848C933F00320B5A7
:202A00004128A90048A97E28D12608C97EF00320B5416848C9B0F00320B54128A9FF48A9CB
:202A20008028D12608C980F00320B5416848C97DF00320B54128A9FF48A97F28D12608C96E
:202A40007FF00320B5416848C97FF00320B54128A9FF48A97E28D12608C97EF00320B54137
:202A60006848C9FCF00320B54128AD0002C91CF00320B541A91D8D0002A205A90048B5135E
:202A8000280A08DD2102F00320B541684930DD3902F00320B541CA10E2A205A9FF48B513D6
:202AA000280A08DD2102F00320B54168497CDD3902F00320B541CA10E2A205A90048B51369
:202AC000284A08DD2D02F00320B541684930DD4502F00320B541CA10E2A205A9FF48B5133E
:202AE000284A08DD2D02F00320B54168497CDD4502F00320B541CA10E2A205A90048B513D1
:202B0000282A08DD2102F00320B541684930DD3902F00320B541CA10E2A205A9FE48B51336
:202B2000282A08DD2102F00320B54168497CDD3902F00320B541CA10E2A205A90148B513C7
:202B4000282A08DD2702F00320B541684930DD3F02F00320B541CA10E2A205A9FF48B513E9
:202B6000282A08DD2702F00320B54168497CDD3F02F00320B541CA10E2A205A90048B5137C
:202B8000286A08DD2D02F00320B541684930DD4502F00320B541CA10E2A205A9FE48B5135E
:202BA000286A08DD2D02F00320B54168497CDD4502F00320B541CA10E2A205A90148B513EF
:202BC000286A08DD3302F00320B541684930DD4B02F00320B541CA10E2A205A9FF48B51311
:202BE000286A08DD3302F00320B54168497CDD4B02F00320B541CA10E2AD0002C91DF0037C
:202C000020B541A91E8D0002A205A90048B513850C28060C08A50CDD2102F00320B54168F3
:202C20004930DD3902F00320B541CA10DDA205A9FF48B513850C28060C08A50CDD2102F070
:202C40000320B54168497CDD3902F00320B541CA10DDA205A90048B513850C28460C08A53E
:202C60000CDD2D02F00320B541684930DD4502F00320B541CA10DDA205A9FF48B513850C7E
:202C800028460C08A50CDD2D02F00320B54168497CDD4502F00320B541CA10DDA205A9008B
:202CA00048B513850C28260C08A50CDD2102F00320B541684930DD3902F00320B541CA107B
:202CC000DDA205A9FE48B513850C28260C08A50CDD2102F00320B54168497CDD3902F003D4
:202CE00020B541CA10DDA205A90148B513850C28260C08A50CDD2702F00320B54168493012
:202D0000DD3F02F00320B541CA10DDA205A9FF48B513850C28260C08A50CDD2702F00320B9
:202D2000B54168497CDD3F02F00320B541CA10DDA205A90048B513850C28660C08A50CDD71
:202D40002D02F00320B541684930DD4502F00320B541CA10DDA205A9FE48B513850C2866F9
:202D60000C08A50CDD2D02F00320B54168497CDD4502F00320B541CA10DDA205A90148B51A
:202D800013850C28660C08A50CDD3302F00320B541684930DD4B02F00320B541CA10DDA2B4
:202DA00005A9FF48B513850C28660C08A50CDD3302F00320B54168497CDD4B02F00320B538
:202DC00041CA10DDAD0002C91EF00320B541A91F8D0002A205A90048B5138D0302280E03DA
:202DE0000208AD0302DD2102F00320B541684930DD3902F00320B541CA10DAA205A9FF48C1
:202E0000B5138D0302280E030208AD0302DD2102F00320B54168497CDD3902F00320B5410C
:202E2000CA10DAA205A90048B5138D0302284E030208AD0302DD2D02F00320B541684930C1
:202E4000DD4502F00320B541CA10DAA205A9FF48B5138D0302284E030208AD0302DD2D025F
:202E6000F00320B54168497CDD4502F00320B541CA10DAA205A90048B5138D0302282E03F0
:202E80000208AD0302DD2102F00320B541684930DD3902F00320B541CA10DAA205A9FE4821
:202EA000B5138D0302282E030208AD0302DD2102F00320B54168497CDD3902F00320B5414C
:202EC000CA10DAA205A90148B5138D0302282E030208AD0302DD2702F00320B54168493046
:202EE000DD3F02F00320B541CA10DAA205A9FF48B5138D0302282E030208AD0302DD2702EB
:202F0000F00320B54168497CDD3F02F00320B541CA10DAA205A90048B5138D0302286E0315
:202F20000208AD0302DD2D02F00320B541684930DD4502F00320B541CA10DAA205A9FE4868
:202F4000B5138D0302286E030208AD0302DD2D02F00320B54168497CDD4502F00320B54153
:202F6000CA10DAA205A90148B5138D0302286E030208AD0302DD3302F00320B54168493059
:202F8000DD4B02F00320B541CA10DAA205A9FF48B5138D0302286E030208AD0302DD3302F2
:202FA000F00320B54168497CDD4B02F00320B541CA10DAAD0002C91FF00320B541A9208DFE
:202FC0000002A205A90048B513950C28160C08B50CDD2102F00320B541684930DD3902F0E9
:202FE0000320B541CA10DDA205A9FF48B513950C28160C08B50CDD2102F00320B541684934
:203000007CDD3902F00320B541CA10DDA205A90048B513950C28560C08B50CDD2D02F00309
:2030200020B541684930DD4502F00320B541CA10DDA205A9FF48B513950C28560C08B50C62
:20304000DD2D02F00320B54168497CDD4502F00320B541CA10DDA205A90048B513950C2821
:20306000360C08B50CDD2102F00320B541684930DD3902F00320B541CA10DDA205A9FE48ED
:20308000B513950C28360C08B50CDD2102F00320B54168497CDD3902F00320B541CA10DD86
:2030A000A205A90148B513950C28360C08B50CDD2702F00320B541684930DD3F02F00320BA
:2030C000B541CA10DDA205A9FF48B513950C28360C08B50CDD2702F00320B54168497CDDF7
:2030E0003F02F00320B541CA10DDA205A90048B513950C28760C08B50CDD2D02F00320B587
:2031000041684930DD4502F00320B541CA10DDA205A9FE48B513950C28760C08B50CDD2D2D
:2031200002F00320B54168497CDD4502F00320B541CA10DDA205A90148B513950C28760CC7
:2031400008B50CDD3302F00320B541684930DD4B02F00320B541CA10DDA205A9FF48B51361
:20316000950C28760C08B50CDD3302F00320B54168497CDD4B02F00320B541CA10DDAD005C
:2031800002C920F00320B541A9218D0002A205A90048B5139D0302281E030208BD0302DDEE
:2031A0002102F00320B541684930DD3902F00320B541CA10DAA205A9FF48B5139D03022804
:2031C0001E030208BD0302DD2102F00320B54168497CDD3902F00320B541CA10DAA205A9A7
:2031E0000048B5139D0302285E030208BD0302DD2D02F00320B541684930DD4502F003209B
:20320000B541CA10DAA205A9FF48B5139D0302285E030208BD0302DD2D02F00320B5416831
:20322000497CDD4502F00320B541CA10DAA205A90048B5139D0302283E030208BD0302DDD4
:203240002102F00320B541684930DD3902F00320B541CA10DAA205A9FE48B5139D03022864
:203260003E030208BD0302DD2102F00320B54168497CDD3902F00320B541CA10DAA205A9E6
:203280000148B5139D0302283E030208BD0302DD2702F00320B541684930DD3F02F0032025
:2032A000B541CA10DAA205A9FF48B5139D0302283E030208BD0302DD2702F00320B54168B7
:2032C000497CDD3F02F00320B541CA10DAA205A90048B5139D0302287E030208BD0302DDFA
:2032E0002D02F00320B541684930DD4502F00320B541CA10DAA205A9FE48B5139D030228AC
:203300007E030208BD0302DD2D02F00320B54168497CDD4502F00320B541CA10DAA205A9ED
:203320000148B5139D0302287E030208BD0302DD3302F00320B541684930DD4B02F003202C
:20334000B541CA10DAA205A9FF48B5139D0302287E030208BD0302DD3302F00320B54168CA
:20336000497CDD4B02F00320B541CA10DAAD0002C921F00320B541A9228D0002A200A97EDC
:20338000850CA9004828E60C08A50CDD5102F00320B541684930DD5602F00320B541E8E0B8
:2033A00002D004A9FE850CE005D0D7CAE60CA9004828C60C08A50CDD5102F00320B5416872
:2033C0004930DD5602F00320B541CA300AE001D0DDA981850CD0D7A200A97E850CA9FF48F8
:2033E00028E60C08A50CDD5102F00320B54168497DDD5602F00320B541E8E002D004A9FE10
:20340000850CE005D0D7CAE60CA9FF4828C60C08A50CDD5102F00320B54168497DDD560294
:20342000F00320B541CA300AE001D0DDA981850CD0D7AD0002C922F00320B541A9238D0093
:2034400002A200A97E8D0302A9004828EE030208AD0302DD5102F00320B541684930DD56FC
:2034600002F00320B541E8E002D005A9FE8D0302E005D0D4CAEE0302A9004828CE0302082F
:20348000AD0302DD5102F00320B541684930DD5602F00320B541CA300BE001D0DBA9818DDA
:2034A0000302D0D4A200A97E8D0302A9FF4828EE030208AD0302DD5102F00320B541684959
:2034C0007DDD5602F00320B541E8E002D005A9FE8D0302E005D0D4CAEE0302A9FF4828CE2D
:2034E000030208AD0302DD5102F00320B54168497DDD5602F00320B541CA300BE001D0DBD7
:20350000A9818D0302D0D4AD0002C923F00320B541A9248D0002A200A97E950CA9004828C8
:20352000F60C08B50CDD5102F00320B541684930DD5602F00320B541B50CE8E002D002A962
:20354000FEE005D0D5CAA902950CA9004828D60C08B50CDD5102F00320B541684930DD56BC
:2035600002F00320B541B50CCA3008E001D0D9A981D0D5A200A97E950CA9FF4828F60C0898
:20358000B50CDD5102F00320B54168497DDD5602F00320B541B50CE8E002D002A9FEE005DC
:2035A000D0D5CAA902950CA9FF4828D60C08B50CDD5102F00320B54168497DDD5602F003FE
:2035C00020B541B50CCA3008E001D0D9A981D0D5AD0002C924F00320B541A9258D0002A215
:2035E00000A97E9D0302A9004828FE030208BD0302DD5102F00320B541684930DD5602F0DD
:203600000320B541BD0302E8E002D002A9FEE005D0D1CAA9029D0302A9004828DE030208EB
:20362000BD0302DD5102F00320B541684930DD5602F00320B541BD0302CA3008E001D0D526
:20364000A981D0D1A200A97E9D0302A9FF4828FE030208BD0302DD5102F00320B541684965
:203660007DDD5602F00320B541BD0302E8E002D002A9FEE005D0D1CAA9029D0302A9FF48FD
:2036800028DE030208BD0302DD5102F00320B54168497DDD5602F00320B541BD0302CA30F4
:2036A00008E001D0D5A981D0D1AD0002C925F00320B541A9268D0002A203B51E8D0A02A9F3
:2036C0000048BD6B022820090208DD7302F00320B541684930DD7702F00320B541CA10DACE
:2036E000A203B51E8D0A02A9FF48BD6B022820090208DD7302F00320B54168497DDD770265
:20370000F00320B541CA10DAA203B51E850CA90048BD6B0228250C08DD7302F00320B5410C
:20372000684930DD7702F00320B541CA10DCA203B51E850CA9FF48BD6B0228250C08DD73BF
:2037400002F00320B54168497DDD7702F00320B541CA10DCA203B51E8D0302A90048BD6BF8
:2037600002282D030208DD7302F00320B541684930DD7702F00320B541CA10DAA203B51E1E
:203780008D0302A9FF48BD6B02282D030208DD7302F00320B54168497DDD7702F00320B574
:2037A00041CA1002A203A90048BD6B0228351E08DD7302F00320B541684930DD7702F00324
:2037C00020B541CA10E0A203A9FF48BD6B0228351E08DD7302F00320B54168497DDD7702F8
:2037E000F00320B541CA10E0A203A90048BD6B02283D5F0208DD7302F00320B5416849303C
:20380000DD7702F00320B541CA10DFA203A9FF48BD6B02283D5F0208DD7302F00320B541A8
:2038200068497DDD7702F00320B541CA10DFA003A90048B96B0228395F0208D97302F0037D
:2038400020B541684930D97702F00320B5418810DFA003A9FF48B96B0228395F0208D973D0
:2038600002F00320B54168497DD97702F00320B5418810DFA206A003A90048B96B02282192
:203880003C08D97302F00320B541684930D97702F00320B541CACA8810DEA206A003A9FF54
:2038A00048B96B0228213C08D97302F00320B54168497DD97702F00320B541CACA8810DE23
:2038C000A003A90048B96B0228313C08D97302F00320B541684930D97702F00320B5418876
:2038E00010E0A003A9FF48B96B0228313C08D97302F00320B54168497DD97702F00320B5E3
:20390000418810E0AD0002C926F00320B541A9278D0002A203B5228D0D02A90048BD6F02B1
:2039200028200C0208DD7302F00320B541684930DD7702F00320B541CA10DAA203B5228DD1
:203940000D02A9FF48BD6F0228200C0208DD7302F00320B54168497DDD7702F00320B541F4
:20396000CA10DAA203B522850CA90048BD6F0228450C08DD7302F00320B541684930DD7756
:2039800002F00320B541CA10DCA203B522850CA9FF48BD6F0228450C08DD7302F00320B5A0
:2039A0004168497DDD7702F00320B541CA10DCA203B5228D0302A90048BD6F02284D0302DC
:2039C00008DD7302F00320B541684930DD7702F00320B541CA10DAA203B5228D0302A9FFDA
:2039E00048BD6F02284D030208DD7302F00320B54168497DDD7702F00320B541CA1002A269
:203A000003A90048BD6F0228552208DD7302F00320B541684930DD7702F00320B541CA1068
:203A2000E0A203A9FF48BD6F0228552208DD7302F00320B54168497DDD7702F00320B54154
:203A4000CA10E0A203A90048BD6F02285D630208DD7302F00320B541684930DD7702F00371
:203A600020B541CA10DFA203A9FF48BD6F02285D630208DD7302F00320B54168497DDD77E5
:203A800002F00320B541CA10DFA003A90048B96F022859630208D97302F00320B5416849AE
:203AA00030D97702F00320B5418810DFA003A9FF48B96F022859630208D97302F00320B543
:203AC0004168497DD97702F00320B5418810DFA206A003A90048B96F0228414408D973023C
:203AE000F00320B541684930D97702F00320B541CACA8810DEA206A003A9FF48B96F0228EA
:203B0000414408D97302F00320B54168497DD97702F00320B541CACA8810DEA003A900489A
:203B2000B96F0228514408D97302F00320B541684930D97702F00320B5418810E0A003A93F
:203B4000FF48B96F0228514408D97302F00320B54168497DD97702F00320B5418810E0AD2A
:203B60000002C927F00320B541A9288D0002A203B51A8D1002A90048BD670228200F02085F
:203B8000DD7302F00320B541684930DD7702F00320B541CA10DAA203B51A8D1002A9FF48D3
:203BA000BD670228200F0208DD7302F00320B54168497DDD7702F00320B541CA10DAA2033D
:203BC000B51A850CA90048BD670228050C08DD7302F00320B541684930DD7702F00320B5D3
:203BE00041CA10DCA203B51A850CA9FF48BD670228050C08DD7302F00320B54168497DDD0C
:203C00007702F00320B541CA10DCA203B51A8D0302A90048BD6702280D030208DD7302F0CB
:203C20000320B541684930DD7702F00320B541CA10DAA203B51A8D0302A9FF48BD67022833
:203C40000D030208DD7302F00320B54168497DDD7702F00320B541CA1002A203A90048BD33
:203C6000670228151A08DD7302F00320B541684930DD7702F00320B541CA10E0A203A9FFDA
:203C800048BD670228151A08DD7302F00320B54168497DDD7702F00320B541CA10E0A20310
:203CA000A90048BD6702281D5B0208DD7302F00320B541684930DD7702F00320B541CA10CE
:203CC000DFA203A9FF48BD6702281D5B0208DD7302F00320B54168497DDD7702F00320B5F9
:203CE00041CA10DFA003A90048B9670228195B0208D97302F00320B541684930D97702F0F4
:203D00000320B5418810DFA003A9FF48B9670228195B0208D97302F00320B54168497DD95A
:203D20007702F00320B5418810DFA206A003A90048B9670228014C08D97302F00320B54158
:203D4000684930D97702F00320B541CACA8810DEA206A003A9FF48B9670228014C08D973F7
:203D600002F00320B54168497DD97702F00320B541CACA8810DEA003A90048B967022811B6
:203D80004C08D97302F00320B541684930D97702F00320B5418810E0A003A9FF48B967020F
:203DA00028114C08D97302F00320B54168497DD97702F00320B5418810E058AD0002C92826
:203DC000F00320B541A9298D0002D8A20EA0FFA900850C850D850E8D0302850F8510A9FF90
:203DE00085128D0402A90285111820383EE60CE60F080868298228D002E6100510851138CD
:203E000020383EC60CE60DD0E0A9008510EE0302E60E086829828511C612CE0402A50E85DD
:203E20000FD0C6AD0002C929F00320B541A9F08D0002207E424C0004A511298348A50D453A
:203E40000E300AA50D450F10046809404868851108A50D650E08C50FF00320B5416829C3A3
:203E6000C511F00320B5412808A50DE51208C50FF00320B5416829C3C511F00320B541284A
:203E800008A50D6D030208C50FF00320B5416829C3C511F00320B5412808A50DED04020801
:203EA000C50FF00320B5416829C3C511F00320B5412808A50E8D1302A50D20120208C50FAB
:203EC000F00320B5416829C3C511F00320B5412808A5128D1602A50D20150208C50FF00362
:203EE00020B5416829C3C511F00320B5412808A50D750008C50FF00320B5416829C3C51113
:203F0000F00320B5412808A50DF50408C50FF00320B5416829C3C511F00320B5412808A5D0
:203F20000D7DF50108C50FF00320B5416829C3C511F00320B5412808A50DFDF60108C50F37
:203F4000F00320B5416829C3C511F00320B5412808A50D79040108C50FF00320B54168294F
:203F6000C3C511F00320B5412808A50DF9050108C50FF00320B5416829C3C511F00320B5E7
:203F8000412808A50D614608C50FF00320B5416829C3C511F00320B5412808A50DE148082C
:203FA000C50FF00320B5416829C3C511F00320B5412808A50D715808C50FF00320B54168F9
:203FC00029C3C511F00320B5412808A50DF15A08C50FF00320B5416829C3C511F00320B512
:203FE00041286088880888888828900320B541500320B541100320B541D00320B541C946ED
:20400000F00320B541E041F00320B541C04FF00320B541488A48BAE0FDF00320B54168AA89
:20402000A9FF482868E849AA4CF3090035407B0A20B54188880888888828900320B54150FC
:204040000320B541100320B541D00320B541C949F00320B541E04EF00320B541C041F003EF
:2040600020B541488A48BAE0FDF00320B54168AAA9FF482868E849AA6C2E4020B5414C00C7
:204080000488880888888828900320B541500320B541100320B541D00320B541C94AF0031A
:2040A00020B541E053F00320B541C04FF00320B541488A48BAE0FBF00320B541ADFF01C968
:2040C0000AF00320B541ADFE01C9CCF00320B541A9FF482868AA68E849AA6020B5414C0054
:2040E0000420B5414C000420B5414C0004888808888888C9BDF05AC942F00320B541E0522A
:20410000F00320B541C048F00320B541850A860BBABD0201C930F00320B54168C934F00391
:2041200020B541BAE0FCF00320B541ADFF01C90BF00320B541ADFE01C91EF00320B541A9FB
:20414000FF48A60BE8A50A49AA284020B5414C0004E0ADF00320B541C0B1F00320B541857A
:204160000A860BBABD0201C9FFF00320B541680908C9FFF00320B541BAE0FCF00320B54170
:20418000ADFF01C90BF00320B541ADFE01C953F00320B541A90448A60BE8A50A49AA28402C
:2041A00020B5414C0004A200ADC34220BF42E8BDC342D0F76008488A489848D8A200ADD753
:2041C0004220BF42E8BDD742D0F7BAE8A90120AB428A20AB4220A742BD000120AB42E8D07B
:2041E000F4209E42A90020AB42A90CAA20AB4220A742B50020AB42E8E013D0F3209E42A997
:204200000220AB42A90020AB42A20020A742BD000220AB42E8E009D0F2A200ADF34220BF6C
:2042200042E8BDF342D0F7209442C953F00BC943D0F568A868AA682860A9F0CD0002F0E76C
:20424000A2FF9AEE0002A900850CA904850DA004B10CD97942D00A88300FC001D0F288F029
:20426000EFE60CD0E9E60DD0E5A001B10CC9F0F005CD0002D0EB6C0C00A9008D0002A20014
:20428000AD254320BF42E8BD2543D0F7209442C952D0F960AD04F0C9619002295F60A90AE2
:2042A00020BF42A90DD018A920D014484A4A4A4A20B64268290F186930C93A900269068D28
:2042C00001F0600A0D537461727465642074657374696E670A0D000A0D7265677320592009
:2042E0002058202041202050532050434C5043480A0D000A0D7072657373204320746F2027
:20430000636F6E74696E7565206F72205320746F20736B69702063757272656E74207465CE
:2043200073740A0D000A0D416C6C20746573747320636F6D706C657465642C207072657319
:1043400073205220746F207265706561740A0D00CD
:06FFFA00E140E740EF408A
:00040001FB
